:1000000025C02BC23EC03DC03CC03BC03AC039C039
:1000100038C037C036C082C134C033C032C031C0EE
:1000200030C02FC02EC273C22CC0FDC0F7C046C165
:10003000FFC003C107C10BC10FC113C117C11BC151
:100040001FC123C127C12BC12FC133C111241FBE22
:10005000CFE5D2E0DEBFCDBF10E0A0E6B0E0ECE639
:10006000FAE002C005900D92AE38B107D9F711E061
:10007000AEE8B0E001C01D92A735B107E1F7D8D2D4
:10008000F3C4BECF1092170168E86093370184E093
:10009000809318018EEA8093380185E080931901DE
:1000A00084EB8093390181E080931A0186EA809382
:1000B0003A0182E080931B0183EB80933B018CE942
:1000C00080931C018DEB80933C018DE980931D0191
:1000D00088EA80933D0183E880931E0124E9209300
:1000E0003E0183EC80931F0181EB80933F0187ECFD
:1000F0008093200192EC9093400185EA8093210146
:10010000909341015EE85093220187EA8093420177
:1001100081E8809323018FE88093430140EC409372
:10012000240181E9809344012093250183E9809390
:10013000450185E88093260186E9809346018CE895
:100140008093270189EB809347018FEB80932801EF
:100150003EE93093480199EA9093290186EB809318
:10016000490180E880932A0120934A0182E8809324
:100170002B0187E980934B0180EB80932C0189E868
:1001800080934C0140932D0190934D0187E880931B
:100190002E018BEB80934E0160932F0150934F0102
:1001A0003093300197EB9093500184E880933101B4
:1001B00089E9809351019093320186E8809352013E
:1001C0009AEA9093330185E9809353018EEB8093F3
:1001D0003401E4E5F1E082EB81938AE88093350114
:1001E0008FE981938BE88093360190830895FF9285
:1001F0000F931F93162F042FF22E80938B00609382
:100200008C004093960020938D00E82FF0E0E131C0
:10021000F10508F053C0EB5EFF4F099420EC32E18A
:1002200040E050E04FC020E639E040E050E04AC0F6
:1002300020E438E340E050E045C020E03BE440E00B
:1002400050E040C020E830E740E050E03BC022E111
:100250003AE740E050E036C020E036E940E050E0C8
:1002600031C020E031EE40E050E02CC020E03CE224
:1002700041E050E027C020E032EC41E050E022C0F5
:100280002DEC3DE243E050E01DC020E930ED43E0BD
:1002900050E018C024EB34EC44E050E013C02BE9EC
:1002A0003BE546E050E00EC028E639E849E050E082
:1002B00009C020ED32E143E150E004C020E835E21E
:1002C00040E050E060E472E48FE090E0ABD3215076
:1002D000304030BD29B9013019F0023019F404C0A2
:1002E00080E303C080E001C080E292E0F91609F4E7
:1002F0008860163049F0173018F4153039F407C00B
:10030000173021F4846003C0826001C08660806879
:1003100080BD1BB81F910F91FF9008951F920F92FF
:100320000FB60F9211242F933F938F939F93EF93C8
:10033000FF93209192008091910030E02F5F3F4F1A
:1003400090E0019728173907C9F0809192008F3704
:1003500021F480919100813089F0E0919200F0E0E9
:100360008CB1E956FF4F8083809192008F5F80931C
:100370009200809192008F7780939200FF91EF918D
:100380009F918F913F912F910F900FBE0F901F90D3
:1003900018951AB888E98AB980918B0060918C0011
:1003A0004091960020918D0022DF08955D9BFECF45
:1003B000829BFECF8CB908951F93CF93DF93EC01FE
:1003C00010E002C0F3DF1F5FFE01E10FF11D80812D
:1003D0008823C1F7DF91CF911F91089588E0809322
:1003E000900010928E0083B7846083BF83B78160D2
:1003F00083BF10928F0010928F008FEF8ABBDE9820
:10040000DF9A949A94988AE18A95F1F71ABA089536
:10041000CF93DF9383B78B7F83BF83B78E7F83BFF9
:1004200082E890E0C9DFC8E0D0E00DC0FE01E956E7
:10043000FF4F8081803428F4E82FF0E0E95EFE4F22
:100440008081B4DF21968091900090E0C817D90791
:100450006CF3C4DFDF91CF9108951F920F920FB616
:100460000F9211248F93829B03C010928A0003C0C5
:1004700081E080938A008F910F900FBE0F901F90A4
:1004800018951F920F920FB60F9211242F933F933E
:100490008F939F9380919500882381F5809193009D
:1004A0008130B1F480B320B330E02076307094E036
:1004B000359527959A95E1F790E084709070959521
:1004C000879595958795282B8FEF8ABB2BBB10C0FE
:1004D00080919300873091F486B326B330E0287181
:1004E0003070359527958370822B9FEF9ABB8BBB1D
:1004F000949A94988AE18A95F1F71ABA9F918F910C
:100500003F912F910F900FBE0F901F9018951F9243
:100510000F920FB60F9211242F933F934F935F9337
:100520006F937F938F939F93AF93BF93EF93FF93BB
:10053000809190008930D8F080918F008F5F8093F8
:100540008F0080918F008A3059F48FEF8ABBDE983C
:10055000DF9A949A94988AE18A95F1F71ABA07C0BB
:1005600080918F008A3519F410928F0051DFFF912E
:10057000EF91BF91AF919F918F917F916F915F911B
:100580004F913F912F910F900FBE0F901F90189594
:10059000979880E49CE90197F1F7979A28E088E121
:1005A00090E00FB6F894A89581BD0FBE21BDFFCF96
:1005B00080E690E001DF089565DD83B7886083BF42
:1005C00089EF8CBF89B7826089BF1ABA80EE87BB7A
:1005D0008FEF84BB82E981BB979AAA9880E484BF9D
:1005E00080E28BBF8ABF7894D4DEE2DF1092930062
:1005F0001092940084E18093970080E680939800A5
:1006000085E18093990082E780939A0086E1809348
:100610009B0088E580939C0087E180939D0085E0A6
:1006200080939E0088E0809390001092950008953A
:100630006F927F928F929F92AF92BF92CF92DF92F2
:10064000EF92FF920F931F93CF93DF93B5DFFF24B9
:10065000FA940AE1EE24E394F0E9CF2EF1E0DF2EE4
:10066000E4E0BE2E77E0A72E62E0962E55E0852EC0
:1006700046E0742E33E0632EC0E4DCE98091930001
:1006800080939400809195008823A9F48091930031
:10069000882389F480918E00882321F4FABADE98A9
:1006A000DF9A03C0FABADE98DF98949A9498802F64
:1006B0008A95F1F71ABA109295001ABAAB9A839BF1
:1006C000FECF19B38399FECFAB981F3F09F04EC1FF
:1006D0001ABAAB9A839BFECF19B38399FECFAB981E
:1006E0001F3F09F443C1AA98143109F490C0153191
:1006F00058F5153009F47CC0163098F4123009F41E
:1007000059C0133038F4112309F44CC0113009F0EA
:100710002DC14AC0133009F450C0143009F026C16D
:100720004FC0183009F46DC0193038F4163009F490
:1007300062C0173009F01AC161C0193009F464C0F1
:100740001A3009F013C16FC0193209F4B6C01A3259
:1007500098F4173109F483C0183138F4153109F4CD
:1007600064C0163109F002C16DC01E3109F484C0A5
:10077000183209F0FBC087C0143309F4D4C0153314
:1007800038F4123309F4BBC0133309F0EFC0C1C011
:10079000133609F4DEC0143609F4E0C0153309F04D
:1007A000E5C0CBC0F5DEE2C09798CE010197F1F726
:1007B000979A64CFE0929300D9C010929300D6C06C
:1007C000609293001ABAAA9A839BFECF1ABAAB9A88
:1007D000839BFECF19B38399FECFAB988399FECF4D
:1007E0001F3F09F4C3C01295107F146015BBECCFF6
:1007F000B0929300BBC080929300B8C070929300F7
:10080000B5C0A0929300B2C090929300AFC01ABA44
:10081000AB9A839BFECF89B38399FECFAB9880932D
:10082000830080936100C4DE29CF1ABAAB9A839B00
:10083000FECF89B38399FECFAB98809385008093D8
:100840006300F1CF1ABAAB9A839BFECF89B3839929
:10085000FECFAB988093870080936500E4CF1ABAEF
:10086000AB9A839BFECF89B38399FECFAB988093DD
:10087000890080936700D7CFE0929500FABA809103
:1008800093008BBB8FC0909192008091910098173C
:1008900030F49091920080919100905804C0909112
:1008A000920080919100981BFABA9BBB949A9498FD
:1008B000802F8A95F1F71ABA1FC09091910080910C
:1008C0009200981709F4DACEFABAE0919100F0E0BC
:1008D000E956FF4F80818BBB949A9498802F8A951C
:1008E000F1F71ABA809191008F5F80939100809107
:1008F00091008F7780939100E0929500BFCE1ABA55
:10090000AB9A839BFECF89B380938B008399FECFF4
:100910001DC01ABAAB9A839BFECF89B380938C001B
:100920008399FECF13C01ABAAB9A839BFECF89B3CB
:10093000809396008399FECF09C01ABAAB9A839B25
:10094000FECF89B380938D008399FECFAB9821DDD4
:1009500095CEE0929500FABAEBBA24C080E593EC0C
:10096000F6013197F1F70197D9F788CE909193006E
:1009700080919400981709F081CE80919300823085
:1009800079F0833030F48823A1F0813009F076CEFD
:100990003DC0843009F43AC0873009F06FCE39C0C9
:1009A000FABA1BBB949A9498802F8A95F1F71ABAD9
:1009B00065CEFABADE9ADF98949A9498802F8A9539
:1009C000F1F71ABA83B78B7F83BF83B78E7F83BF5C
:1009D000802F8A95F1F783B7846083BF83B78160E6
:1009E00083BF10928F0080919000E82FF0E0E956CD
:1009F000FF4F10838F5F80939000E0928E00809174
:100A000090008E3709F03ACE03DD38CE812FCEDC50
:100A100035CE812F90E024E0880F991F2A95E1F7C9
:100A200085BB2CCEA1E21A2EAA1BBB1BFD010DC05B
:100A3000AA1FBB1FEE1FFF1FA217B307E407F5078E
:100A400020F0A21BB30BE40BF50B661F771F881F6A
:100A5000991F1A9469F760957095809590959B0100
:0C0A6000AC01BD01CF010895F894FFCF58
:100A6C001460157216581705BBBB8080C68080BBFE
:100A7C00BB8080BBC60880C40884088DB108BB81CC
:0E0A8C0081BF1460157216581705010208018B
:00000001FF
