:1000000025C02BC23EC03DC03CC03BC03AC039C039
:1000100038C037C036C082C134C033C032C031C0EE
:1000200030C02FC02EC2A1C22CC0FDC0F7C046C137
:10003000FFC003C107C10BC10FC113C117C11BC151
:100040001FC123C127C12BC12FC133C111241FBE22
:10005000CFE5D2E0DEBFCDBF10E0A0E6B0E0EAEF32
:10006000FAE002C005900D92AE38B107D9F711E061
:10007000AEE8B0E001C01D92A835B107E1F706D3A4
:100080003AC5BECF1092180168E86093380184E049
:10009000809319018EEA8093390185E080931A01DB
:1000A00084EB80933A0181E080931B0186EA809380
:1000B0003B0182E080931C0183EB80933C018CE93F
:1000C00080931D018DEB80933D018DE980931E018E
:1000D00088EA80933E0183E880931F0124E92093FE
:1000E0003F0183EC8093200181EB8093400187ECFA
:1000F0008093210192EC9093410185EA8093220143
:10010000909342015EE85093230187EA8093430174
:1001100081E8809324018FE88093440140EC409370
:10012000250181E9809345012093260183E980938D
:10013000460185E88093270186E9809347018CE892
:100140008093280189EB809348018FEB80932901EC
:100150003EE93093490199EA90932A0186EB809316
:100160004A0180E880932B0120934B0182E8809321
:100170002C0187E980934C0180EB80932D0189E865
:1001800080934D0140932E0190934E0187E8809318
:100190002F018BEB80934F016093300150935001FE
:1001A0003093310197EB9093510184E880933201B1
:1001B00089E9809352019093330186E8809353013B
:1001C0009AEA9093340185E9809354018EEB8093F1
:1001D0003501E5E5F1E082EB81938AE88093360111
:1001E0008FE981938BE88093370190830895FF9284
:1001F0000F931F93162F042FF22E80938B00609382
:100200008C004093970020938D00E82FF0E0E131BF
:10021000F10508F053C0EB5EFF4F099420EC32E18A
:1002200040E050E04FC020E639E040E050E04AC0F6
:1002300020E438E340E050E045C020E03BE440E00B
:1002400050E040C020E830E740E050E03BC022E111
:100250003AE740E050E036C020E036E940E050E0C8
:1002600031C020E031EE40E050E02CC020E03CE224
:1002700041E050E027C020E032EC41E050E022C0F5
:100280002DEC3DE243E050E01DC020E930ED43E0BD
:1002900050E018C024EB34EC44E050E013C02BE9EC
:1002A0003BE546E050E00EC028E639E849E050E082
:1002B00009C020ED32E143E150E004C020E835E21E
:1002C00040E050E060E472E48FE090E0F2D321502F
:1002D000304030BD29B9013019F0023019F404C0A2
:1002E00080E303C080E001C080E292E0F91609F4E7
:1002F0008860163049F0173018F4153039F407C00B
:10030000173021F4846003C0826001C08660806879
:1003100080BD1BB81F910F91FF9008951F920F92FF
:100320000FB60F9211242F933F938F939F93EF93C8
:10033000FF93209192008091910030E02F5F3F4F1A
:1003400090E0019728173907C9F0809192008F3704
:1003500021F480919100813089F0E0919200F0E0E9
:100360008CB1E856FF4F8083809192008F5F80931D
:100370009200809192008F7780939200FF91EF918D
:100380009F918F913F912F910F900FBE0F901F90D3
:1003900018951AB888E98AB980918B0060918C0011
:1003A0004091970020918D0022DF08955D9BFECF44
:1003B000829BFECF8CB908951F93CF93DF93EC01FE
:1003C00010E002C0F3DF1F5FFE01E10FF11D80812D
:1003D0008823C1F7DF91CF911F91089588E0809322
:1003E000900010928E0083B7846083BF83B78160D2
:1003F00083BF10928F0010928F008FEF8ABBDE9820
:10040000DF9A949A94988AE18A95F1F71ABA089536
:10041000CF93DF9383B78B7F83BF83B78E7F83BFF9
:1004200082E890E0C9DFC8E0D0E00DC0FE01E856E8
:10043000FF4F8081803428F4E82FF0E0E85EFE4F23
:100440008081B4DF21968091900090E0C817D90791
:100450006CF3C4DFDF91CF9108951F920F920FB616
:100460000F9211248F93829B03C010928A0003C0C5
:1004700081E080938A008F910F900FBE0F901F90A4
:1004800018951F920F920FB60F9211242F933F933E
:100490008F939F93EF93FF9380919600882309F0A9
:1004A00059C0809194008130B1F480B320B330E022
:1004B00020763070E4E035952795EA95E1F790E0F5
:1004C000847090709595879595958795282B8FEFDB
:1004D0008ABB2BBB39C080919400873069F486B306
:1004E00026B330E028713070359527958370822BC4
:1004F0009FEF9ABB8BBB28C080919400883051F548
:1005000080919300882359F49091910080919200FA
:10051000E0E09817B1F0E1E0E093930012C0E091C1
:100520009100F0E0E856FF4FE081809191008F5FED
:1005300080939100809191008F7780939100109229
:1005400093008FEF8ABBEBBB949A94988AE18A95CB
:10055000F1F71ABAFF91EF919F918F913F912F91EF
:100560000F900FBE0F901F9018951F920F920FB60D
:100570000F9211242F933F934F935F936F937F9329
:100580008F939F93AF93BF93EF93FF9380919000CE
:100590008930D8F080918F008F5F80938F00809199
:1005A0008F008A3059F48FEF8ABBDE98DF9A949AD5
:1005B00094988AE18A95F1F71ABA07C080918F0062
:1005C0008A3519F410928F0023DFFF91EF91BF91CC
:1005D000AF919F918F917F916F915F914F913F91DB
:1005E0002F910F900FBE0F901F901895979880E451
:1005F0009CE90197F1F7979A28E088E190E00FB61F
:10060000F894A89581BD0FBE21BDFFCF80E690E094
:10061000D3DE089537DD83B7886083BF89EF8CBF51
:1006200089B7826089BF1ABA80EE87BB8FEF84BB1F
:1006300082E981BB979AAA9880E484BF80E28BBF4D
:100640008ABF7894A6DEE2DF1092940010929500A3
:1006500084E18093980080E68093990085E18093FF
:100660009A0082E780939B0086E180939C0088E556
:1006700080939D0087E180939E0085E080939F009A
:1006800088E0809390001092960008955F926F9298
:100690007F928F929F92AF92BF92CF92DF92EF9212
:1006A000FF920F931F93CF93DF93B4DFFF24FA944D
:1006B0000AE1EE24E39442E0942E30E9C32E31E0C7
:1006C000D32E24E0822E97E0792E88E0B82E16E013
:1006D000A12EB5E06B2EA3E05A2EC0E4DCE9809198
:1006E000940080939500809196008823A9F48091CE
:1006F0009400882389F480918E00882321F4FABA2B
:10070000DE98DF9A03C0FABADE98DF98949A94983C
:10071000802F8A95F1F71ABA109296001ABAAB9AFE
:10072000839BFECF19B38399FECFAB981F3F09F08F
:1007300064C11ABAAB9A839BFECF19B38399FECFDB
:10074000AB981F3F09F459C180919400883009F09B
:10075000AA98143109F4A2C0153170F5153009F4C6
:100760007FC0163098F4123009F45CC0133038F4AE
:10077000112309F44FC0113009F03FC14DC01330AF
:1007800009F453C0143009F038C152C0183009F4CC
:1007900070C0193038F4163009F465C0173009F00C
:1007A0002CC164C01A3009F485C01A3008F464C042
:1007B0001B3009F022C163C0193209F4C5C01A32D6
:1007C00098F4173109F492C0183138F4153109F44E
:1007D00073C0163109F011C17CC01E3109F493C0F9
:1007E000183209F00AC196C0143309F4E3C0153376
:1007F00038F4123309F4CAC0133309F0FEC0D0C074
:10080000133609F4EDC0143609F4EFC0153309F0BE
:10081000F4C0DAC0EBDEF1C09798CE010197F1F792
:10082000979A5DCFE0929400E8C010929400E5C0E2
:10083000509294001ABAAA9A839BFECF1ABAAB9A26
:10084000839BFECF19B38399FECFAB988399FECFDC
:100850001F3F09F4D2C01295107F146015BBECCF76
:1008600080929400CAC060929400C7C0A092940085
:10087000C4C070929400C1C090929400BEC0B09267
:100880009400AA9AA0928B00B0928C0010929700CC
:10089000E0928D007EDD10929300AFC01ABAAB9A41
:1008A000839BFECF89B38399FECFAB98809383005F
:1008B00080936100ABDE13CF1ABAAB9A839BFECF55
:1008C00089B38399FECFAB988093850080936300B2
:1008D000F1CF1ABAAB9A839BFECF89B38399FECF2F
:1008E000AB988093870080936500E4CF1ABAAB9AE7
:1008F000839BFECF89B38399FECFAB988093890009
:1009000080936700D7CFE0929600FABA8091940066
:100910008BBB8FC09091920080919100981730F41A
:100920009091920080919100905804C09091920013
:1009300080919100981BFABA9BBB949A9498802F4F
:100940008A95F1F71ABA1FC0909191008091920098
:10095000981709F4C4CEFABAE0919100F0E0E85695
:10096000FF4F80818BBB949A9498802F8A95F1F7E2
:100970001ABA809191008F5F8093910080919100CD
:100980008F7780939100E0929600A9CE1ABAAB9A25
:10099000839BFECF89B380938B008399FECF1DC0CC
:1009A0001ABAAB9A839BFECF89B380938C0083994C
:1009B000FECF13C01ABAAB9A839BFECF89B3809344
:1009C00097008399FECF09C01ABAAB9A839BFECFDA
:1009D00089B380938D008399FECFAB98DADC7FCE0C
:1009E000E0929600FABA9BBA24C080E593ECF60137
:1009F0003197F1F70197D9F772CE909194008091D9
:100A00009500981709F06BCE80919400823079F0B0
:100A1000833030F48823A1F0813009F060CE3DC0EE
:100A2000843009F43AC0873009F059CE39C0FABA97
:100A30001BBB949A9498802F8A95F1F71ABA4FCEDF
:100A4000FABADE9ADF98949A9498802F8A95F1F7F3
:100A50001ABA83B78B7F83BF83B78E7F83BF802F04
:100A60008A95F1F783B7846083BF83B7816083BFC2
:100A700010928F0080919000E82FF0E0E856FF4F31
:100A800010838F5F80939000E0928E0080919000A1
:100A90008E3709F024CEBCDC22CE812F87DC1FCE1E
:100AA000812F90E0F4E0880F991FFA95E1F785BB5C
:100AB00016CEA1E21A2EAA1BBB1BFD010DC0AA1F58
:100AC000BB1FEE1FFF1FA217B307E407F50720F0B7
:100AD000A21BB30BE40BF50B661F771F881F991F32
:100AE0001A9469F760957095809590959B01AC017B
:0A0AF000BD01CF010895F894FFCF77
:100AFA001460157216581705BBBB8080C68080BB70
:100B0A00BB8080BBC60880C40884088DB108BB813D
:0E0B1A0081BF146015721658170501020801FC
:00000001FF
